{
  "contractName": "NotaryMulti",
  "abi": [
    {
      "constant": false,
      "inputs": [
        {
          "name": "_notaryAddress",
          "type": "address"
        },
        {
          "name": "_firstRecord",
          "type": "bytes"
        },
        {
          "name": "_secondRecord",
          "type": "bytes"
        }
      ],
      "name": "notarizeTwo",
      "outputs": [],
      "payable": false,
      "stateMutability": "nonpayable",
      "type": "function"
    }
  ],
  "bytecode": "0x608060405234801561001057600080fd5b50610324806100206000396000f300608060405260043610610041576000357c0100000000000000000000000000000000000000000000000000000000900463ffffffff1680636ca484d714610046575b600080fd5b34801561005257600080fd5b50610113600480360381019080803573ffffffffffffffffffffffffffffffffffffffff169060200190929190803590602001908201803590602001908080601f0160208091040260200160405190810160405280939291908181526020018383808284378201915050505050509192919290803590602001908201803590602001908080601f0160208091040260200160405190810160405280939291908181526020018383808284378201915050505050509192919290505050610115565b005b60008390508073ffffffffffffffffffffffffffffffffffffffff1663fb1ace34846040518263ffffffff167c01000000000000000000000000000000000000000000000000000000000281526004018080602001828103825283818151815260200191508051906020019080838360005b838110156101a2578082015181840152602081019050610187565b50505050905090810190601f1680156101cf5780820380516001836020036101000a031916815260200191505b5092505050600060405180830381600087803b1580156101ee57600080fd5b505af1158015610202573d6000803e3d6000fd5b505050508073ffffffffffffffffffffffffffffffffffffffff1663fb1ace34836040518263ffffffff167c01000000000000000000000000000000000000000000000000000000000281526004018080602001828103825283818151815260200191508051906020019080838360005b8381101561028e578082015181840152602081019050610273565b50505050905090810190601f1680156102bb5780820380516001836020036101000a031916815260200191505b5092505050600060405180830381600087803b1580156102da57600080fd5b505af11580156102ee573d6000803e3d6000fd5b50505050505050505600a165627a7a723058200c5bf1e716bdf48ffb0d87daa7c7767c84a7aff2c4665aad7e12410d94058e010029",
  "source": "pragma solidity ^0.4.23;\n\ncontract Notary {\n\n    struct Record {\n        bytes notarisedData;\n        uint256 timestamp;\n    }\n\n    mapping(bytes32 => Record) public records;\n\n    /**\n    * @dev fetch a Record by it's data notarised data\n    * @param _notarisedData the data that got notarised\n    */\n    function record(bytes _notarisedData) public constant returns(bytes, uint256) {\n        Record memory r = records[keccak256(_notarisedData)];\n        return (r.notarisedData, r.timestamp);\n    }\n\n    /**\n    * @dev notarize a new record\n    * @param _record the record to notarize\n    */\n    function notarize(bytes _record) public {\n\n        // create hash of record to to have an unique and deterministic key\n        bytes32 recordHash = keccak256(_record);\n\n        // make sure the record hasn't been notarised\n        require(records[recordHash].timestamp == 0);\n\n        // notarize record\n        records[recordHash] = Record({\n            notarisedData: _record,\n            timestamp: now\n        });\n\n    }\n\n}\n\ncontract NotaryMulti {\n\n    /**\n    * @dev notarize two records\n    * @param _firstRecord is the first record that should be notarized\n    * @param _secondRecord is the second record that should be notarized\n    */\n    function notarizeTwo(address _notaryAddress, bytes _firstRecord, bytes _secondRecord) public {\n        Notary notary = Notary(_notaryAddress);\n        notary.notarize(_firstRecord);\n        notary.notarize(_secondRecord);\n    }\n\n}\n",
  "sourcePath": "/Users/florian/projects/notary/contracts/Notary.sol",
  "compiler": {
    "name": "solc",
    "version": "0.4.24+commit.e67f0147.Emscripten.clang"
  },
  "schemaVersion": "2.0.1",
  "updatedAt": "2018-09-11T19:32:45.231Z"
}