{
  "contractName": "Notary",
  "abi": [
    {
      "constant": true,
      "inputs": [
        {
          "name": "",
          "type": "bytes32"
        }
      ],
      "name": "records",
      "outputs": [
        {
          "name": "notarisedData",
          "type": "bytes"
        },
        {
          "name": "timestamp",
          "type": "uint256"
        }
      ],
      "payable": false,
      "stateMutability": "view",
      "type": "function"
    },
    {
      "constant": false,
      "inputs": [],
      "name": "renounceOwnership",
      "outputs": [],
      "payable": false,
      "stateMutability": "nonpayable",
      "type": "function"
    },
    {
      "constant": true,
      "inputs": [],
      "name": "owner",
      "outputs": [
        {
          "name": "",
          "type": "address"
        }
      ],
      "payable": false,
      "stateMutability": "view",
      "type": "function"
    },
    {
      "constant": true,
      "inputs": [],
      "name": "notarisationFee",
      "outputs": [
        {
          "name": "",
          "type": "uint256"
        }
      ],
      "payable": false,
      "stateMutability": "view",
      "type": "function"
    },
    {
      "constant": false,
      "inputs": [
        {
          "name": "_newOwner",
          "type": "address"
        }
      ],
      "name": "transferOwnership",
      "outputs": [],
      "payable": false,
      "stateMutability": "nonpayable",
      "type": "function"
    },
    {
      "inputs": [
        {
          "name": "_owner",
          "type": "address"
        }
      ],
      "payable": false,
      "stateMutability": "nonpayable",
      "type": "constructor"
    },
    {
      "anonymous": false,
      "inputs": [
        {
          "indexed": true,
          "name": "previousOwner",
          "type": "address"
        }
      ],
      "name": "OwnershipRenounced",
      "type": "event"
    },
    {
      "anonymous": false,
      "inputs": [
        {
          "indexed": true,
          "name": "previousOwner",
          "type": "address"
        },
        {
          "indexed": true,
          "name": "newOwner",
          "type": "address"
        }
      ],
      "name": "OwnershipTransferred",
      "type": "event"
    },
    {
      "constant": false,
      "inputs": [
        {
          "name": "_fee",
          "type": "uint256"
        }
      ],
      "name": "setNotarisationFee",
      "outputs": [],
      "payable": false,
      "stateMutability": "nonpayable",
      "type": "function"
    },
    {
      "constant": true,
      "inputs": [
        {
          "name": "_notarisedData",
          "type": "bytes"
        }
      ],
      "name": "record",
      "outputs": [
        {
          "name": "",
          "type": "bytes"
        },
        {
          "name": "",
          "type": "uint256"
        }
      ],
      "payable": false,
      "stateMutability": "view",
      "type": "function"
    },
    {
      "constant": false,
      "inputs": [
        {
          "name": "_record",
          "type": "bytes"
        }
      ],
      "name": "notarize",
      "outputs": [],
      "payable": true,
      "stateMutability": "payable",
      "type": "function"
    }
  ],
  "bytecode": "0x608060405234801561001057600080fd5b50604051602080610c2283398101806040528101908080519060200190929190505050336000806101000a81548173ffffffffffffffffffffffffffffffffffffffff021916908373ffffffffffffffffffffffffffffffffffffffff160217905550806000806101000a81548173ffffffffffffffffffffffffffffffffffffffff021916908373ffffffffffffffffffffffffffffffffffffffff16021790555050610b5f806100c36000396000f30060806040526004361061008e576000357c0100000000000000000000000000000000000000000000000000000000900463ffffffff16806301e6472514610093578063715018a6146101445780638da5cb5b1461015b578063c0496e57146101b2578063c9d3a885146101df578063e11126481461020a578063f2fde38b146102f3578063fb1ace3414610336575b600080fd5b34801561009f57600080fd5b506100c26004803603810190808035600019169060200190929190505050610392565b6040518080602001838152602001828103825284818151815260200191508051906020019080838360005b838110156101085780820151818401526020810190506100ed565b50505050905090810190601f1680156101355780820380516001836020036101000a031916815260200191505b50935050505060405180910390f35b34801561015057600080fd5b5061015961044e565b005b34801561016757600080fd5b50610170610550565b604051808273ffffffffffffffffffffffffffffffffffffffff1673ffffffffffffffffffffffffffffffffffffffff16815260200191505060405180910390f35b3480156101be57600080fd5b506101dd60048036038101908080359060200190929190505050610575565b005b3480156101eb57600080fd5b506101f46105da565b6040518082815260200191505060405180910390f35b34801561021657600080fd5b50610271600480360381019080803590602001908201803590602001908080601f01602080910402602001604051908101604052809392919081815260200183838082843782019150505050505091929192905050506105e0565b6040518080602001838152602001828103825284818151815260200191508051906020019080838360005b838110156102b757808201518184015260208101905061029c565b50505050905090810190601f1680156102e45780820380516001836020036101000a031916815260200191505b50935050505060405180910390f35b3480156102ff57600080fd5b50610334600480360381019080803573ffffffffffffffffffffffffffffffffffffffff169060200190929190505050610739565b005b610390600480360381019080803590602001908201803590602001908080601f01602080910402602001604051908101604052809392919081815260200183838082843782019150505050505091929192905050506107a0565b005b6001602052806000526040600020600091509050806000018054600181600116156101000203166002900480601f01602080910402602001604051908101604052809291908181526020018280546001816001161561010002031660029004801561043e5780601f106104135761010080835404028352916020019161043e565b820191906000526020600020905b81548152906001019060200180831161042157829003601f168201915b5050505050908060010154905082565b6000809054906101000a900473ffffffffffffffffffffffffffffffffffffffff1673ffffffffffffffffffffffffffffffffffffffff163373ffffffffffffffffffffffffffffffffffffffff161415156104a957600080fd5b6000809054906101000a900473ffffffffffffffffffffffffffffffffffffffff1673ffffffffffffffffffffffffffffffffffffffff167ff8df31144d9c2f0f6b59d69b8b98abd5459d07f2742c4df920b25aae33c6482060405160405180910390a260008060006101000a81548173ffffffffffffffffffffffffffffffffffffffff021916908373ffffffffffffffffffffffffffffffffffffffff160217905550565b6000809054906101000a900473ffffffffffffffffffffffffffffffffffffffff1681565b6000809054906101000a900473ffffffffffffffffffffffffffffffffffffffff1673ffffffffffffffffffffffffffffffffffffffff163373ffffffffffffffffffffffffffffffffffffffff161415156105d057600080fd5b8060028190555050565b60025481565b606060006105ec610a74565b60016000856040518082805190602001908083835b6020831015156106265780518252602082019150602081019050602083039250610601565b6001836020036101000a038019825116818451168082178552505050505050905001915050604051809103902060001916600019168152602001908152602001600020604080519081016040529081600082018054600181600116156101000203166002900480601f01602080910402602001604051908101604052809291908181526020018280546001816001161561010002031660029004801561070d5780601f106106e25761010080835404028352916020019161070d565b820191906000526020600020905b8154815290600101906020018083116106f057829003601f168201915b505050505081526020016001820154815250509050806000015181602001518191509250925050915091565b6000809054906101000a900473ffffffffffffffffffffffffffffffffffffffff1673ffffffffffffffffffffffffffffffffffffffff163373ffffffffffffffffffffffffffffffffffffffff1614151561079457600080fd5b61079d8161097a565b50565b600060025434101515156107b357600080fd5b816040518082805190602001908083835b6020831015156107e957805182526020820191506020810190506020830392506107c4565b6001836020036101000a0380198251168184511680821785525050505050509050019150506040518091039020905060006001600083600019166000191681526020019081526020016000206001015414151561084557600080fd5b600073ffffffffffffffffffffffffffffffffffffffff166000809054906101000a900473ffffffffffffffffffffffffffffffffffffffff1673ffffffffffffffffffffffffffffffffffffffff1614151561091c576000809054906101000a900473ffffffffffffffffffffffffffffffffffffffff1673ffffffffffffffffffffffffffffffffffffffff166108fc3073ffffffffffffffffffffffffffffffffffffffff16319081150290604051600060405180830381858888f1935050505015801561091a573d6000803e3d6000fd5b505b6040805190810160405280838152602001428152506001600083600019166000191681526020019081526020016000206000820151816000019080519060200190610968929190610a8e565b50602082015181600101559050505050565b600073ffffffffffffffffffffffffffffffffffffffff168173ffffffffffffffffffffffffffffffffffffffff16141515156109b657600080fd5b8073ffffffffffffffffffffffffffffffffffffffff166000809054906101000a900473ffffffffffffffffffffffffffffffffffffffff1673ffffffffffffffffffffffffffffffffffffffff167f8be0079c531659141344cd1fd0a4f28419497f9722a3daafe3b4186f6b6457e060405160405180910390a3806000806101000a81548173ffffffffffffffffffffffffffffffffffffffff021916908373ffffffffffffffffffffffffffffffffffffffff16021790555050565b604080519081016040528060608152602001600081525090565b828054600181600116156101000203166002900490600052602060002090601f016020900481019282601f10610acf57805160ff1916838001178555610afd565b82800160010185558215610afd579182015b82811115610afc578251825591602001919060010190610ae1565b5b509050610b0a9190610b0e565b5090565b610b3091905b80821115610b2c576000816000905550600101610b14565b5090565b905600a165627a7a72305820f549fc7d41363a26f9a86de67a89e2464b06a93f77f38d3cafd2bbec5bf8254c0029",
  "source": "pragma solidity ^0.4.23;\n\n/**\n * @title Ownable\n * @dev The Ownable contract has an owner address, and provides basic authorization control\n * functions, this simplifies the implementation of \"user permissions\".\n */\ncontract Ownable {\n    address public owner;\n\n\n    event OwnershipRenounced(address indexed previousOwner);\n    event OwnershipTransferred(\n        address indexed previousOwner,\n        address indexed newOwner\n    );\n\n\n    /**\n     * @dev The Ownable constructor sets the original `owner` of the contract to the sender\n     * account.\n     */\n    constructor() public {\n        owner = msg.sender;\n    }\n\n    /**\n     * @dev Throws if called by any account other than the owner.\n     */\n    modifier onlyOwner() {\n        require(msg.sender == owner);\n        _;\n    }\n\n    /**\n     * @dev Allows the current owner to relinquish control of the contract.\n     */\n    function renounceOwnership() public onlyOwner {\n        emit OwnershipRenounced(owner);\n        owner = address(0);\n    }\n\n    /**\n     * @dev Allows the current owner to transfer control of the contract to a newOwner.\n     * @param _newOwner The address to transfer ownership to.\n     */\n    function transferOwnership(address _newOwner) public onlyOwner {\n        _transferOwnership(_newOwner);\n    }\n\n    /**\n     * @dev Transfers control of the contract to a newOwner.\n     * @param _newOwner The address to transfer ownership to.\n     */\n    function _transferOwnership(address _newOwner) internal {\n        require(_newOwner != address(0));\n        emit OwnershipTransferred(owner, _newOwner);\n        owner = _newOwner;\n    }\n}\n\n\ncontract Notary is Ownable {\n\n    struct Record {\n        bytes notarisedData;\n        uint256 timestamp;\n    }\n\n    mapping(bytes32 => Record) public records;\n    uint256 public notarisationFee;\n\n    /**\n    * @dev initialize Notary\n    * @param _owner of the notary\n    */\n    constructor (address _owner) public {\n        owner = _owner;\n    }\n\n    /**\n    * @dev make sure that the call has the notarisation cost\n    */\n    modifier callHasNotarisationCost() {\n        require(msg.value >= notarisationFee);\n        _;\n    }\n\n    /**\n    * @dev set notarisation cost\n    * @param _fee to notarize a record\n    */\n    function setNotarisationFee(uint256 _fee) public onlyOwner {\n        notarisationFee = _fee;\n    }\n\n    /**\n    * @dev fetch a Record by it's data notarised data\n    * @param _notarisedData the data that got notarised\n    */\n    function record(bytes _notarisedData) public constant returns(bytes, uint256) {\n        Record memory r = records[keccak256(_notarisedData)];\n        return (r.notarisedData, r.timestamp);\n    }\n\n    /**\n    * @dev notarize a new record\n    * @param _record the record to notarize\n    */\n    function notarize(bytes _record)\n        public\n        payable\n        callHasNotarisationCost\n    {\n\n        // create hash of record to to have an unique and deterministic key\n        bytes32 recordHash = keccak256(_record);\n\n        // make sure the record hasn't been notarised\n        require(records[recordHash].timestamp == 0);\n\n        // transfer notarisation fee to owner\n        if (owner != address(0)){\n            owner.transfer(address(this).balance);\n        }\n\n        // notarize record\n        records[recordHash] = Record({\n            notarisedData: _record,\n            timestamp: now\n        });\n\n    }\n\n}\n\ncontract NotaryMulti {\n\n    Notary public notary;\n\n    constructor(Notary _notary) public {\n        notary = _notary;\n    }\n\n    /**\n    * @dev notarize two records\n    * @param _firstRecord is the first record that should be notarized\n    * @param _secondRecord is the second record that should be notarized\n    */\n    function notarizeTwo(bytes _firstRecord, bytes _secondRecord) public {\n        notary.notarize(_firstRecord);\n        notary.notarize(_secondRecord);\n    }\n\n}\n",
  "sourcePath": "/Users/florian/projects/notary/contracts/Notary.sol",
  "compiler": {
    "name": "solc",
    "version": "0.4.24+commit.e67f0147.Emscripten.clang"
  },
  "schemaVersion": "2.0.1",
  "updatedAt": "2018-09-28T01:58:27.925Z"
}