{
  "contractName": "NotaryMulti",
  "abi": [
    {
      "constant": true,
      "inputs": [],
      "name": "notary",
      "outputs": [
        {
          "name": "",
          "type": "address"
        }
      ],
      "payable": false,
      "stateMutability": "view",
      "type": "function"
    },
    {
      "inputs": [
        {
          "name": "_notary",
          "type": "address"
        }
      ],
      "payable": false,
      "stateMutability": "nonpayable",
      "type": "constructor"
    },
    {
      "constant": false,
      "inputs": [
        {
          "name": "_firstRecord",
          "type": "bytes"
        },
        {
          "name": "_secondRecord",
          "type": "bytes"
        }
      ],
      "name": "notarizeTwo",
      "outputs": [],
      "payable": false,
      "stateMutability": "nonpayable",
      "type": "function"
    }
  ],
  "bytecode": "0x608060405234801561001057600080fd5b5060405160208061044983398101806040528101908080519060200190929190505050806000806101000a81548173ffffffffffffffffffffffffffffffffffffffff021916908373ffffffffffffffffffffffffffffffffffffffff160217905550506103c6806100836000396000f30060806040526004361061004c576000357c0100000000000000000000000000000000000000000000000000000000900463ffffffff16806309267785146100515780639d54c79d14610100575b600080fd5b34801561005d57600080fd5b506100fe600480360381019080803590602001908201803590602001908080601f0160208091040260200160405190810160405280939291908181526020018383808284378201915050505050509192919290803590602001908201803590602001908080601f0160208091040260200160405190810160405280939291908181526020018383808284378201915050505050509192919290505050610157565b005b34801561010c57600080fd5b50610115610375565b604051808273ffffffffffffffffffffffffffffffffffffffff1673ffffffffffffffffffffffffffffffffffffffff16815260200191505060405180910390f35b6000809054906101000a900473ffffffffffffffffffffffffffffffffffffffff1673ffffffffffffffffffffffffffffffffffffffff1663fb1ace34836040518263ffffffff167c01000000000000000000000000000000000000000000000000000000000281526004018080602001828103825283818151815260200191508051906020019080838360005b838110156102005780820151818401526020810190506101e5565b50505050905090810190601f16801561022d5780820380516001836020036101000a031916815260200191505b5092505050600060405180830381600087803b15801561024c57600080fd5b505af1158015610260573d6000803e3d6000fd5b505050506000809054906101000a900473ffffffffffffffffffffffffffffffffffffffff1673ffffffffffffffffffffffffffffffffffffffff1663fb1ace34826040518263ffffffff167c01000000000000000000000000000000000000000000000000000000000281526004018080602001828103825283818151815260200191508051906020019080838360005b8381101561030d5780820151818401526020810190506102f2565b50505050905090810190601f16801561033a5780820380516001836020036101000a031916815260200191505b5092505050600060405180830381600087803b15801561035957600080fd5b505af115801561036d573d6000803e3d6000fd5b505050505050565b6000809054906101000a900473ffffffffffffffffffffffffffffffffffffffff16815600a165627a7a72305820211d43ebc357a7ff1e28a80cb9d62139d2766551aa5410172a6acf3e3e6e3e470029",
  "source": "pragma solidity ^0.4.23;\n\n/**\n * @title Ownable\n * @dev The Ownable contract has an owner address, and provides basic authorization control\n * functions, this simplifies the implementation of \"user permissions\".\n */\ncontract Ownable {\n    address public owner;\n\n\n    event OwnershipRenounced(address indexed previousOwner);\n    event OwnershipTransferred(\n        address indexed previousOwner,\n        address indexed newOwner\n    );\n\n\n    /**\n     * @dev The Ownable constructor sets the original `owner` of the contract to the sender\n     * account.\n     */\n    constructor() public {\n        owner = msg.sender;\n    }\n\n    /**\n     * @dev Throws if called by any account other than the owner.\n     */\n    modifier onlyOwner() {\n        require(msg.sender == owner);\n        _;\n    }\n\n    /**\n     * @dev Allows the current owner to relinquish control of the contract.\n     */\n    function renounceOwnership() public onlyOwner {\n        emit OwnershipRenounced(owner);\n        owner = address(0);\n    }\n\n    /**\n     * @dev Allows the current owner to transfer control of the contract to a newOwner.\n     * @param _newOwner The address to transfer ownership to.\n     */\n    function transferOwnership(address _newOwner) public onlyOwner {\n        _transferOwnership(_newOwner);\n    }\n\n    /**\n     * @dev Transfers control of the contract to a newOwner.\n     * @param _newOwner The address to transfer ownership to.\n     */\n    function _transferOwnership(address _newOwner) internal {\n        require(_newOwner != address(0));\n        emit OwnershipTransferred(owner, _newOwner);\n        owner = _newOwner;\n    }\n}\n\n\ncontract Notary is Ownable {\n\n    struct Record {\n        bytes notarisedData;\n        uint256 timestamp;\n    }\n\n    mapping(bytes32 => Record) public records;\n    uint256 public notarisationFee;\n\n    /**\n    * @dev initialize Notary\n    * @param _owner of the notary\n    */\n    constructor (address _owner) public {\n        owner = _owner;\n    }\n\n    /**\n    * @dev make sure that the call has the notarisation cost\n    */\n    modifier callHasNotarisationCost() {\n        require(msg.value >= notarisationFee);\n        _;\n    }\n\n    /**\n    * @dev set notarisation cost\n    * @param _fee to notarize a record\n    */\n    function setNotarisationFee(uint256 _fee) public onlyOwner {\n        notarisationFee = _fee;\n    }\n\n    /**\n    * @dev fetch a Record by it's data notarised data\n    * @param _notarisedData the data that got notarised\n    */\n    function record(bytes _notarisedData) public constant returns(bytes, uint256) {\n        Record memory r = records[keccak256(_notarisedData)];\n        return (r.notarisedData, r.timestamp);\n    }\n\n    /**\n    * @dev notarize a new record\n    * @param _record the record to notarize\n    */\n    function notarize(bytes _record)\n        public\n        payable\n        callHasNotarisationCost\n    {\n\n        // create hash of record to to have an unique and deterministic key\n        bytes32 recordHash = keccak256(_record);\n\n        // make sure the record hasn't been notarised\n        require(records[recordHash].timestamp == 0);\n\n        // transfer notarisation fee to owner\n        if (owner != address(0)){\n            owner.transfer(address(this).balance);\n        }\n\n        // notarize record\n        records[recordHash] = Record({\n            notarisedData: _record,\n            timestamp: now\n        });\n\n    }\n\n}\n\ncontract NotaryMulti {\n\n    Notary public notary;\n\n    constructor(Notary _notary) public {\n        notary = _notary;\n    }\n\n    /**\n    * @dev notarize two records\n    * @param _firstRecord is the first record that should be notarized\n    * @param _secondRecord is the second record that should be notarized\n    */\n    function notarizeTwo(bytes _firstRecord, bytes _secondRecord) public {\n        notary.notarize(_firstRecord);\n        notary.notarize(_secondRecord);\n    }\n\n}\n",
  "sourcePath": "/Users/florian/projects/notary/contracts/Notary.sol",
  "compiler": {
    "name": "solc",
    "version": "0.4.24+commit.e67f0147.Emscripten.clang"
  },
  "schemaVersion": "2.0.1",
  "updatedAt": "2018-09-28T01:58:27.926Z"
}