{
  "contractName": "Notary",
  "abi": [
    {
      "constant": true,
      "inputs": [
        {
          "name": "",
          "type": "bytes32"
        }
      ],
      "name": "records",
      "outputs": [
        {
          "name": "notarisedData",
          "type": "bytes"
        },
        {
          "name": "timestamp",
          "type": "uint256"
        }
      ],
      "payable": false,
      "stateMutability": "view",
      "type": "function"
    },
    {
      "constant": true,
      "inputs": [
        {
          "name": "_notarisedData",
          "type": "bytes"
        }
      ],
      "name": "record",
      "outputs": [
        {
          "name": "",
          "type": "bytes"
        },
        {
          "name": "",
          "type": "uint256"
        }
      ],
      "payable": false,
      "stateMutability": "view",
      "type": "function"
    },
    {
      "constant": false,
      "inputs": [
        {
          "name": "_record",
          "type": "bytes"
        }
      ],
      "name": "notarize",
      "outputs": [],
      "payable": false,
      "stateMutability": "nonpayable",
      "type": "function"
    }
  ],
  "bytecode": "0x608060405234801561001057600080fd5b5061064e806100206000396000f300608060405260043610610057576000357c0100000000000000000000000000000000000000000000000000000000900463ffffffff16806301e647251461005c578063e11126481461010d578063fb1ace34146101f6575b600080fd5b34801561006857600080fd5b5061008b600480360381019080803560001916906020019092919050505061025f565b6040518080602001838152602001828103825284818151815260200191508051906020019080838360005b838110156100d15780820151818401526020810190506100b6565b50505050905090810190601f1680156100fe5780820380516001836020036101000a031916815260200191505b50935050505060405180910390f35b34801561011957600080fd5b50610174600480360381019080803590602001908201803590602001908080601f016020809104026020016040519081016040528093929190818152602001838380828437820191505050505050919291929050505061031b565b6040518080602001838152602001828103825284818151815260200191508051906020019080838360005b838110156101ba57808201518184015260208101905061019f565b50505050905090810190601f1680156101e75780820380516001836020036101000a031916815260200191505b50935050505060405180910390f35b34801561020257600080fd5b5061025d600480360381019080803590602001908201803590602001908080601f0160208091040260200160405190810160405280939291908181526020018383808284378201915050505050509192919290505050610473565b005b6000602052806000526040600020600091509050806000018054600181600116156101000203166002900480601f01602080910402602001604051908101604052809291908181526020018280546001816001161561010002031660029004801561030b5780601f106102e05761010080835404028352916020019161030b565b820191906000526020600020905b8154815290600101906020018083116102ee57829003601f168201915b5050505050908060010154905082565b60606000610327610563565b600080856040518082805190602001908083835b602083101515610360578051825260208201915060208101905060208303925061033b565b6001836020036101000a038019825116818451168082178552505050505050905001915050604051809103902060001916600019168152602001908152602001600020604080519081016040529081600082018054600181600116156101000203166002900480601f0160208091040260200160405190810160405280929190818152602001828054600181600116156101000203166002900480156104475780601f1061041c57610100808354040283529160200191610447565b820191906000526020600020905b81548152906001019060200180831161042a57829003601f168201915b505050505081526020016001820154815250509050806000015181602001518191509250925050915091565b6000816040518082805190602001908083835b6020831015156104ab5780518252602082019150602081019050602083039250610486565b6001836020036101000a03801982511681845116808217855250505050505090500191505060405180910390209050600080600083600019166000191681526020019081526020016000206001015414151561050657600080fd5b6040805190810160405280838152602001428152506000808360001916600019168152602001908152602001600020600082015181600001908051906020019061055192919061057d565b50602082015181600101559050505050565b604080519081016040528060608152602001600081525090565b828054600181600116156101000203166002900490600052602060002090601f016020900481019282601f106105be57805160ff19168380011785556105ec565b828001600101855582156105ec579182015b828111156105eb5782518255916020019190600101906105d0565b5b5090506105f991906105fd565b5090565b61061f91905b8082111561061b576000816000905550600101610603565b5090565b905600a165627a7a72305820b610573ea1f1f19c1694e3aca48227d47ed45808165e7c087296fa81b3bd183e0029",
  "source": "pragma solidity ^0.4.23;\n\ncontract Notary {\n\n    struct Record {\n        bytes notarisedData;\n        uint256 timestamp;\n    }\n\n    mapping(bytes32 => Record) public records;\n\n    /**\n    * @dev fetch a Record by it's data notarised data\n    * @param _notarisedData the data that got notarised\n    */\n    function record(bytes _notarisedData) public constant returns(bytes, uint256) {\n        Record memory r = records[keccak256(_notarisedData)];\n        return (r.notarisedData, r.timestamp);\n    }\n\n    /**\n    * @dev notarize a new record\n    * @param _record the record to notarize\n    */\n    function notarize(bytes _record) public {\n\n        // create hash of record to to have an unique and deterministic key\n        bytes32 recordHash = keccak256(_record);\n\n        // make the this record hasn't been notarised\n        require(records[recordHash].timestamp == 0);\n\n        // notarize record\n        records[recordHash] = Record({\n            notarisedData: _record,\n            timestamp: now\n        });\n\n    }\n\n}\n",
  "sourcePath": "/Users/florian/projects/notary/contracts/Notary.sol",
  "compiler": {
    "name": "solc",
    "version": "0.4.24+commit.e67f0147.Emscripten.clang"
  },
  "schemaVersion": "2.0.1",
  "updatedAt": "2018-09-06T23:10:57.080Z"
}